:10000000002000204584000027310000AB320000B2
:100010002333000063330000BF3300007B8D0000FA
:100020007B8D00007B8D00007B8D0000DF340000A5
:10003000FB3400007B8D0000A73600000B39000068
:10004000EF3B0000CB3E0000734B00008B4B0000E9
:1000500069340000034C0000EF4C0000274F000003
:100060002B4F0000A5800000C5800000BF65000088
:100070000B670000EF6D00005B620000BB6F0000CB
:1000800043840000C7840000FF8400005F8B0000F1
:10009000398D00003B8D00007B8D00007B8D0000C2
:1000A0003D8D00003F8D00007B8D00007B8D0000AA
:1000B000418D0000438D0000458D0000478D0000FC
:1000C000498D00004B8D00004D8D00004F8D0000CC
:1000D0007B8D00007B8D0000518D0000538D000052
:1000E000558D00007B8D00007B8D0000578D00003A
:1000F000598D00007B8D00005B8D00005D8D000040
:100100005F8D0000618D0000638D0000658D000033
:10011000678D0000698D00006B8D00006D8D000003
:100120006F8D0000718D00000000000000000000D5
:10013000738D0000758D0000778D0000798D0000B3
:10018000FFFFFFFFFFFFFFFFFFFFFFFFFFFFFFFF7F
:0801900003329CA700000000EF
:10080000DFF810245369D168CB1851688B4207D2A6
:100810009168D36841F82300D068401CD06002E0A2
:100820007FF003009061704710B4C0F3870000228E
:1008300000E0521CDFF8DC335C69A24209D21B697C
:1008400013F8223003F0FF039842F2D10A6000202F
:1008500001E07FF0060010BC704710B50C0080B2BC
:1008600000F069F92060002010BD10B4DFF8A43357
:100870005C69DA6814195A68944214D21A69121F12
:100880001A611A6980B28008146860F30704146062
:100890001869027802F0FF0252EA012202605869E8
:1008A000401C586102E07FF00300986110BC704763
:1008B0001CB5040001A9200080B2FFF7B5FF002895
:1008C0000AD06946200080B2FFF7C7FF00992000D8
:1008D00080B2FFF7CAFF07E0DFF83803006901992B
:1008E00050F82100000A0090009816BD38B50400A9
:1008F0000D00200080B2B0F5085F05DB7FF004003A
:10090000DFF8101388612EE06946200080B2FFF7FF
:100910008BFF002817D1DFF8FC020069009900EB7B
:100920008100017801F0FF0151EA05210160A4B2C4
:10093000A40825F07F4555EA046555F000452800D8
:10094000FFF75EFF0FE02900200080B2FFF78DFF68
:10095000A4B2A40825F07F4555EA046555F000458A
:100960002800FFF74DFF31BD10B504000022200024
:1009700002F004F910BD70B50C001500DFF8C8686E
:1009800000210021B0F5004002F06AF90100002CBE
:1009900006D0022C0CD004D3042C17D00FD31CE0AB
:1009A0001BE008005FF07F5102F06CF9010014E0D9
:1009B00008005FF0804102F065F901000DE00800D9
:1009C0005FF0814102F05EF9010006E00800DFF807
:1009D0007C1802F057F90100FFE7280002F0DEF969
:1009E0005FF08E4102F04EF9310002F0D7F970BD90
:1009F0002DE9F84F06000F009046D8F8000002F0ED
:100A00002FF98146D8F8000002F02AF9494602F091
:100A1000C5F98146D8F8040002F022F98246D8F8D8
:100A2000040002F01DF9514602F0B8F9494602F0FF
:100A300021FA8146386802F013F98246D8F800009E
:100A400002F00EF9514602F0A9F98246786802F0E8
:100A500007F98346D8F8040002F002F9594602F07B
:100A60009DF9514602F006FA04002000494602F0C2
:100A700009F90400786802F0F3F88246D8F800001B
:100A800002F0EEF8514602F089F98246386802F029
:100A9000E7F80700D8F8040002F0E2F8390002F0A5
:100AA0007DF90100504602F055FA0500280049463C
:100AB00002F0E8F80500C6E90045BDE8F18F38B559
:100AC00004002168206802F069F905006168606827
:100AD00002F064F9290002F0CDF902F087FA02F081
:100AE000A9FA02F021FB32BD70B50600306802F0B1
:100AF0007DFA02000B0014001D00706802F076FA07
:100B000022002B0002F044FB02F00EFB70BD02003D
:100B100092B2B2F5805242F215039A4205D280B2E7
:100B2000DFF82C271018016004E080B2DFF82027DE
:100B3000101801807047010089B2B1F5805142F26E
:100B40001502914205D280B2DFF804170818006838
:100B500005E080B2DFF8F8160818008880B2704708
:100B600080B52C4A1278012A03D180B2FFF7BEFE6D
:100B700002E080B2FFF7CBFF01BD80B525490978BF
:100B8000012903D180B2FFF793FE02E080B2FFF7A4
:100B9000D2FF02BD10B59CB06846DFF8B8167022CF
:100BA00002F094FB1B480021C1600021416100213B
:100BB000816100210170002409E0684600EBC40057
:100BC0004168684630F83400FFF7CAFF641C0E2CF9
:100BD000F3D340F20440FFF7D0FF45F201518842C1
:100BE00004D10120DFF8701608700FE045F20251C1
:100BF000884204D10120DFF86016087006E0B0F5E5
:100C0000AA4F03D10020DFF8501608701CB010BDA9
:100C1000000000007809002038B504000D004FF4F2
:100C20000050FFF7AAFFEDB2012D0DD1A10603D5AB
:100C300030F0200034F02004210303D530F40020EC
:100C400034F4002404430DE0A10603D550F0200045
:100C500034F02004210303D550F4002034F40024A0
:100C600030EA040421004FF40050FFF779FF31BD52
:100C700080B550EA8100010042F2F020FFF770FFDA
:100C800001BD10B504004FF40050FFF776FF0100DE
:100C900031F020012078002801D151F020014FF4DB
:100CA0000050FFF75DFF4FF40650FFF766FF6178D5
:100CB000012901D150F00100A178012901D150F0A2
:100CC0001000E178012901D150F0040021790129B7
:100CD00001D150F02000617A012901D150F48070D7
:100CE000A17A012901D150F00200E17A012901D154
:100CF00050F00800217B012901D150F04000010093
:100D00004FF40650FFF72CFF0021A079002801D1F5
:100D100051F002016079002801D151F00101E07920
:100D2000012801D151F0040142F25000FFF718FFF1
:100D300010BD10B5040014F1100000F029F814F1F2
:100D4000500000F069F8200000F005F814F11C00D4
:100D500000F09BF810BD10B50400216842F250105D
:100D6000FFF7FEFE616842F25810FFF7F9FEA16836
:100D700042F25410FFF7F4FEE16842F25C10FFF714
:100D8000EFFE5FF4803142F20C00FFF7E9FE10BD88
:100D900080B500210268012A01D151F480514268D6
:100DA000012A01D151F001018068400010F4FF7068
:100DB000014342F21000FFF7D3FE01BD7FB50400EE
:100DC0000D0016000B2D01D3F82515E0032D02D3DD
:100DD0000835ED0010E06846DFF88014102202F0BC
:100DE00075FA052E07D269460520454301EB05003B
:100DF000855DED0000E0F8253543002C05D0290085
:100E000042F2F400FFF7ACFE04E0290042F2F800E1
:100E1000FFF7A6FE7FBD000010B50400002C02D134
:100E20007FF0020030E02069032802D27FF0010049
:100E30002AE020690C2802D37FF0010024E06069D9
:100E4000062802D37FF001001EE000212068014344
:100E500042F2FC00FFF784FEA1684901606801438B
:100E6000207B012801D151F0100142F2F000FFF780
:100E700077FE626921690020FFF7A0FFE269A1699E
:100E80000120FFF79BFF002010BD10B50400206873
:100E9000022814D1216A42F23000FFF761FE616A34
:100EA00042F23C00FFF75CFEA16A42F23800FFF715
:100EB00057FEE16A42F23400FFF752FE26E0206856
:100EC00003281ED1A16842F21800FFF749FEE1682D
:100ED00042F21C00FFF744FE216942F22000FFF7B6
:100EE0003FFE616942F22800FFF73AFEA16942F233
:100EF0002400FFF735FEE16942F22C00FFF730FED7
:100F000004E0216B42F24800FFF72AFE002120791D
:100F1000012801D151F020016079012801D151F05F
:100F20001001206851EA400142F21400FFF718FE58
:100F300010BD80B501000905090D42F24800FFF718
:100F40000FFE002002BD70B505000E001A24DFF868
:100F500008030078012800D11E243000002102F08F
:100F6000E1F901D1002022E001200021220002F05D
:100F7000E7F902F0F7F9290001F010FF310001F064
:100F800081FE5FF07C5101F075FF02F019FA1A2C16
:100F900002D1DFF8541901E07FF07F41814206D28F
:100FA0001A2C02D1DFF8400901E07FF07F4070BDCC
:100FB00010B50400200000F005F814F1200000F046
:100FC0005CF810BD10B50400002061688901A068BC
:100FD00051EA0011E06851EAC001606951EA8001FC
:100FE000207E002801D151F00101607E002801D14E
:100FF00051F002012068002810D142F22810FFF7BA
:10100000AFFDA18BC9B2608B00F019F8216951F0D6
:10101000200142F22410FFF7A3FD0FE042F234104A
:10102000FFF79EFDA18BC9B2608B00F017F8216914
:1010300051F0200142F23010FFF792FD10BD80B553
:1010400011F03F010005000DC9B280B250EA013035
:10105000010042F22010FFF783FD01BD80B511F0C1
:101060003F010005000DC9B280B250EA0130010015
:1010700042F22C10FFF774FD01BD10B504000021F1
:10108000207E002801D151F00201607E002801D1AC
:1010900051F001012069042802D151F0040102E05D
:1010A000206951EAC001E06851EA4011A06851EAA4
:1010B0008021606851EA40312068002809D142F25D
:1010C000EC00FFF74DFD616942F2E400FFF748FDD7
:1010D00008E042F2E800FFF743FD616942F2E000F8
:1010E000FFF73EFD10BD10B50400200000F04AF8E7
:1010F00014F10C0000F054F814F1200000F0B0F8E6
:1011000014F1280000F0D5F814F1340000F0BFF815
:1011100010BD80B50021002809D0022813D00CD3BF
:1011200004281CD015D3062825D01ED328E042F26F
:101130007400FFF722FD010022E04FF40250FFF798
:101140001CFD01001CE042F28400FFF716FD0100C7
:1011500016E042F27800FFF710FD010010E042F2C5
:101160007C00FFF70AFD01000AE042F2C810FFF719
:1011700004FD010004E04FF40750FFF7FEFC0100FE
:10118000080002BD80B500210168426851EA0221D1
:10119000806851EA004142F2A810FFF7E1FC01BD6E
:1011A00038B5040042F244052800FFF7E6FC0100D0
:1011B00011F08001E0680143207C012801D151F049
:1011C0001001607C012801D151F04001606851EAB2
:1011D0000021206851EA0031A06851EA80312800DE
:1011E000FFF7BEFCA07C002804D001215FF4803012
:1011F000FFF712FD31BD10B504004FF40050FFF7AA
:10120000BCFCE4B2012C02D150F4807001E030F457
:10121000807001004FF40050FFF7A2FC10BD70B5C4
:1012200004000D0042F2A8163000FFF7A6FCDFF81C
:101230006C170840044354EA052421003000FFF7EE
:101240008FFC70BD00000000110E813F00001041B6
:1012500000000C4004830000D0090020288C00000E
:1012600010B50400218842F2A800FFF779FC6188DC
:1012700042F2AC00FFF774FCA18842F2B000FFF725
:101280006FFCE18842F2B400FFF76AFC10BD80B544
:101290000021027A012A01D151F00101426851EA8C
:1012A0000211006851EAC01142F2C410FFF758FC65
:1012B00001BD70B50400002542F244063000FFF77E
:1012C0005CFC01006068032805D151F0800130000A
:1012D000FFF746FC07E031F080013000FFF740FCEB
:1012E000606855EA0055206855EA0015207A012803
:1012F00001D155F00105290042F2D000FFF730FC82
:1013000070BDF8B5060042F208042000FFF735FC76
:10131000050000212000FFF723FC42F2D817380017
:10132000FFF72BFC01008909890151F008013068A1
:1013300001433800FFF714FCF079002809D00021A0
:1013400042F20400FFF70CFC002142F26400FFF7B8
:1013500007FC00213079012801D151F00101B0686A
:1013600051EA002142F20400FFF7FAFB29002000B5
:10137000FFF7F6FBF1BD10B50400002C02D17FF0A1
:10138000020013E042F2D810FFF7F7FB10F007005D
:1013900020600020E07142F20400FFF7EEFB10F045
:1013A00001012171C0F30720A060002010BD38B5F5
:1013B000040042F204052800FFF7DFFBE4B2012C31
:1013C00002D150F0010001E0400840000100280077
:1013D000FFF7C6FB31BD70B504000D0016000BE031
:1013E000210042F2D410FFF7BBFB641C296842F2D3
:1013F0007000FFF7B5FB2D1D3000461E0028EFD111
:1014000070BD10B504002068002805D0022815D052
:101410000BD303281BD023E0A068616851EA004188
:1014200042F2CC10FFF79CFB1AE0A068616851EA19
:10143000004142F2E810FFF793FB11E0A0686168F9
:1014400051EA004142F2D010FFF78AFB08E0A068A1
:10145000616851EA004142F2E410FFF781FBFFE7C7
:10146000207B012804D1A26821696068FFF7B3FFDF
:1014700010BD80B542F26800FFF77FFB02BD10B5DA
:101480000400616B89B240F60800FFF769FB606BEE
:10149000C0F3034140F60C00FFF762FB616A89B2BA
:1014A0004FF40160FFF75CFB606AC0F3034140F654
:1014B0001400FFF755FBA16B89B240F61800FFF747
:1014C0004FFBA06BC0F3034140F61C00FFF748FB45
:1014D000A16A89B24FF40260FFF742FBA06AC0F331
:1014E000034140F62400FFF73BFBE16B89B240F675
:1014F0002800FFF735FBE06BC0F3034140F62C00FA
:10150000FFF72EFBE16A89B24FF40360FFF728FB77
:10151000E06AC0F3034140F63400FFF721FB216C81
:1015200089B240F63800FFF71BFB206CC0F3034183
:1015300040F63C00FFF714FB216B89B24FF40460C6
:10154000FFF70EFB206BC0F3034140F64400FFF7AA
:1015500007FB012140F61C20FFF702FB0021207948
:1015600010F003000143A068800010F00C0001435C
:10157000E068000110F0300001432069800110F0A4
:10158000C00001436069000210F440700143A0698B
:10159000800210F440600143E069000310F4405001
:1015A0000143206A800310F44040014340F60400E8
:1015B000FFF7D6FA002194F84400012801D151F038
:1015C0000101206851EA40014FF40060FFF7C8FABA
:1015D00010BD10B504004FF40060FFF7CEFA4FF6CF
:1015E000FE710840E4B2012C01D150F0010080B23C
:1015F00001004FF40060FFF7B3FA10BD38B50C00DE
:101600001500002805D0022832D01AD3032846D06E
:101610005CE0A9B240F60800FFF7A2FAC5F3034167
:1016200040F60C00FFF79CFAA1B24FF40160FFF7FF
:1016300097FAC4F3034140F61400FFF791FA002033
:1016400032BDA9B240F61800FFF78AFAC5F303418C
:1016500040F61C00FFF784FAA1B24FF40260FFF7D6
:101660007FFAC4F3034140F62400FFF779FAE6E776
:10167000A9B240F62800FFF773FAC5F3034140F61C
:101680002C00FFF76DFAA1B24FF40360FFF768FA80
:10169000C4F3034140F63400FFF762FACFE7A9B282
:1016A00040F63800FFF75CFAC5F3034140F63C0012
:1016B000FFF756FAA1B24FF40460FFF751FAC4F3F2
:1016C000034140F64400FFF74BFAB8E77FF0010012
:1016D000B6E738B505004FF42160FFF74EFA040075
:1016E000E87C012812D154F004044CF6143140F681
:1016F0000C20FFF735FA21004FF42160FFF730FA94
:101700004FF42160FFF739FA4005F9D5287C01280C
:101710001CD154F002044CF6143140F60C20FFF7B3
:101720001FFA21004FF42160FFF71AFA4FF42160ED
:10173000FFF723FA8005F9D5687C012803D1012041
:1017400000F04CF802E0002000F048F8A87C0128E6
:1017500012D154F001044CF6143140F60C20FFF77E
:10176000FFF921004FF42160FFF7FAF94FF42160EF
:10177000FFF703FAC005F9D5297A11F03F01E868AF
:10178000800110F4707001434FF48160FFF7E8F9B5
:101790000A2001F02FFE2968686851EA800140F2B2
:1017A0001440FFF7DDF9E87C002801D134F004048F
:1017B000287C002801D134F00204A87C002801D143
:1017C000640864004CF6143140F60C20FFF7C8F9A9
:1017D00021004FF42160FFF7C3F931BD70B504005B
:1017E0004FF48260FFF7C9F90500C5F34020C5F347
:1017F000002105F0FF0555EA002555EA412555F081
:1018000020014FF48260FFF7ABF942F2BC063000D2
:10181000FFF7B3F90100E4B2012C0BD131F0040160
:101820003000FFF79DF94FF42160FFF7A6F980051E
:101830000BD4F8E751F004013000FFF791F94FF4B1
:101840002160FFF79AF98005F9D535F020052900C8
:101850004FF48260FFF784F970BD70B50C0015007D
:1018600043F20806012801D143F20C06300080B291
:10187000FFF783F9EDB2012D01D1044301E030EA15
:1018800004042100300080B2FFF76AF970BD80B512
:10189000002804D143F20800FFF76FF903E043F298
:1018A0000C00FFF76AF902BD80B5010043F20400A5
:1018B000FFF756F901BD10B50C00002802D143F224
:1018C000100001E043F2140080B2FFF756F9204205
:1018D00001D0012000E0002010BD80B5010042F2DF
:1018E0001810FFF73DF901BDFFFF0F00F8B501200B
:1018F0008DF8020001208DF8010001208DF8000014
:1019000001208DF8080001208DF8050001208DF8D8
:10191000060000208DF80C0000208DF80B00002040
:101920008DF80A0000208DF8090000208DF80400D1
:1019300000208DF8030000208DF807006846FFF7AF
:10194000A0F905B000BD70B5040000250420FFF724
:10195000ABFFDFF8006701213000FFF75DF90120E0
:1019600001F048FD04210120FFF7A5FF00280AD15E
:10197000206810F1010F02D02068401E206020680E
:101980000028ECD103E00120FFF7C3FB0500002194
:101990003000FFF741F9280070BD0000C0E0FFFFF4
:1019A0002DE9F84FA6B00400DFF8AC56002C02D1A8
:1019B0007FF0020083E0A069052802D37FF00100D8
:1019C0007DE06068DFF8941601F062FD01D85FF0F9
:1019D0000108DFF88C06A16930F82160A16900EBED
:1019E00081004788FFF782FF2069059060690690B3
:1019F000002007905FFA88F8B8F1000F01D00020AE
:101A000000E00120089001208DF8240000208DF8CE
:101A1000250001208DF8260005A8FFF7C1FB002155
:101A2000DFF84006FFF7F8F80121DFF83C06FFF782
:101A3000F3F8192001F0DEFC0120FFF728FF8046B3
:101A4000012204210120FFF708FF42F23029DFF8CC
:101A50001C164846FFF784F8E069012845D04FF48A
:101A6000004A0021380080B2FFF77AF80C2002907B
:101A700008200390A069049002A8FFF783FB0520CB
:101A800001F0B8FC00215FF0000B01E01BF1010B3D
:101A9000BBF1080F16DA206A0190009101A8FFF748
:101AA00052FF0099411801980028EFD10020FFF75C
:101AB000A2FB00214846FFF753F87FF0090027B04A
:101AC000BDE8F08FD1EBCA018A46300080B2FFF743
:101AD00054F85FEA8A3ABAFBF0F1491C491049040C
:101AE000490C380080B2FFF73BF8E069002800F0AD
:101AF000AD804FF48041300080B2FFF731F8A0692B
:101B000003282FD21220029008200390A068E168D9
:101B100001F020FADFF8D81BA26951F8221001F079
:101B20003DF9A16801F0AEF85FF08E4101F036F9A1
:101B3000290001F0A7F801F0BFFC050015F50045EC
:101B4000A069049002A8FFF71DFB052001F052FCDC
:101B5000206A019001A8FFF7F6FE01000198002815
:101B600067D1A3E7242002901420039001214FF4B1
:101B70009C40FFF751F800200E9000200F900720A6
:101B8000109000208DF8840000201E901F202090CF
:101B9000052023900B202290052025900B202490D7
:101BA00000201F9000200A904FF400500B904FF43B
:101BB00080600C904FF480700D9001208DF84800EB
:101BC00001208DF8490000201190A169032902D15C
:101BD0004FF4306004E0A169042901D140F65510AA
:101BE0001D900AA8FFF7A5F80120049002A8FFF7AE
:101BF000C9FA052001F0FEFB206A019001A8FFF759
:101C0000A2FEB0F5004001F06BFC5FF07F5101F0E7
:101C100039F8DFF8DC1AA26951F8221001F0BEF899
:101C200001F04AFC050015F500450198002887D110
:101C30003CE7B5F50045AD03B1F5004195FBF1F189
:101C40004904490C300080B2FEF78AFF5FEA487011
:101C500004D4002204210120FFF7FFFD00214846A3
:101C6000FEF77EFF00202AE72DE9F847C1B0040007
:101C70000D0000260020002038A8DFF8CC1C24220C
:101C800001F024FB002C02D17FF00200DEE160684D
:101C9000002101F047FB02D17FF00100D6E160692D
:101CA000082802D37FF00100D0E16069082802D142
:101CB0007FF00100CAE1002D02D17FF00200C5E1F2
:101CC000E068E64901F0E4FB00D8012638A8616924
:101CD00050F82170606801F089F90022DFF86C3C4F
:101CE00001F00CFC80468946380001F0DDFC020062
:101CF0000B004046494601F0E5FC01F015FADFF81B
:101D0000501C01F003FE16D201275FF00108DFF836
:101D1000441C00F0B7FFDFF8401C01F03FF85FF013
:101D2000804101F03BF801F04BFB82461AF1010AB9
:101D30005FEA5A0A4DE0DFF8241C01F0E7FD16D2F5
:101D400001275FF00008DFF8181C00F09BFFDFF8A8
:101D5000081C01F023F85FF0804101F01FF801F04A
:101D60002FFB82461AF1010A5FEA5A0A31E0DFF8D6
:101D7000F41B01F0CBFD16D200275FF00108DFF85D
:101D8000E81B00F07FFFDFF8D01B01F007F85FF0E1
:101D9000804101F003F801F013FB82461AF1010AB9
:101DA0005FEA5A0A15E000275FF00008DFF8BC1B65
:101DB00000F068FFDFF8A01B00F0F0FF5FF080414B
:101DC00000F0ECFF01F0FCFA82461AF1010A5FEA2A
:101DD0005A0ABAF5006F01D340F2FF7A0120FFF7EB
:101DE00056FD8146012202210120FFF736FD002128
:101DF0009C48FEF711FF01208DF8180001208DF896
:101E00001A0001208DF8190000208DF82400002010
:101E10008DF8230000208DF8210000208DF822008D
:101E200000208DF81C0000208DF81B0000208DF88C
:101E30001D0000208DF81E0000208DF81F0006A850
:101E4000FEF71FFF2097CDF88480072022902022E4
:101E500014F1100130AF380001F028FA01201C9075
:101E600001201D904FF400701E904FF410601F90E1
:101E70000220239001208DF8900001208DF8910020
:101E8000A1682068FFF75FF82B90CDF8B0A0002084
:101E90002D9000202E901CA8FEF74BFF14200D90D3
:101EA00024200C9001200E90082114A8FEF75CFD60
:101EB00003201190F6B2002E01D0002000E0012096
:101EC0001290606B1090206B0F9001208DF84C00E9
:101ED00000208DF84D0001208DF84E000C2214F1E9
:101EE000380116AE300001F0E1F90C21002219AEE4
:101EF000300000F043FE0CA8FFF7F5F80121DFF8F1
:101F0000700AFEF789FE01214FF48140FEF784FE3E
:101F1000192001F06FFA01214FF40140FEF77CFE19
:101F200002210120FFF7C7FC0028F9D04CF28016EF
:101F300000213000FEF770FE0220FFF7B5FC032001
:101F4000FFF7E7F802900420FFF7E3F80390012180
:101F50000120FFF764F901214FF48140FEF75CFE98
:101F6000192001F047FA01214FF40140FEF754FE19
:101F700002210120FFF79FFC0028F9D0002130004A
:101F8000FEF74AFE0220FFF78FFC0320FFF7C1F89F
:101F900000900420FFF7BDF801900298800304D55B
:101FA0000299DFF8D009014302910398800304D518
:101FB0000399DFF8C009014303910098800304D519
:101FC0000099DFF8B009014300910198800304D51E
:101FD0000199DFF8A0090143019101984042019065
:101FE000009840420090019840420190039840427E
:101FF00003900AAE02AA69463000FEF7F9FCD6E962
:102000000001CDE904010499606800F0C7FE049066
:102010000599606800F0C2FE0590606C002804D14C
:10202000DDE90401C5E9000107E004A8FEF747FD6A
:10203000286004A8FEF758FD68605FEA897004D440
:10204000002202210120FFF708FC002042B0BDE879
:10205000F087000000010100110E813F0150C34BC9
:10206000608B0000E0FF3900E0001100AFA587DEC3
:102070002DE9F04FE7B004000F00002500264CA822
:10208000DFF8F4186C2201F021F937A8DFF8EC181A
:10209000142201F01BF9002C02D17FF0020023E38F
:1020A0006068002101F03EF902D17FF001001BE3DE
:1020B000A0691B2802D37FF0010015E3A069002866
:1020C00002D17FF001000FE307970798002802D1A3
:1020D0007FF0020008E3E068DFF8A41801F0D8F907
:1020E00000D801252068002101F01CF900D101264B
:1020F00019A800903CA801904CA8A16950F8217043
:10210000606800F073FF0022DFF8403A01F0F6F952
:1021100080468946380001F0C7FA02000B004046AD
:10212000494601F0CFFA00F0FFFFDFF8241A00F073
:10213000A9FDDFF8241800F031FE5FF0804100F0C7
:102140002DFE01F03DF9804618F101085FEA5808BC
:1021500040F21750804501D340F21658404601F036
:10216000BFF9DFF8F01900F019FEDFF8EC1700F006
:1021700089FD81466168DFF8E00900F07BFE01001F
:10218000484600F07FFD8146380001F0A9F9494634
:1021900000F004FE8146380001F0A2F90100484633
:1021A00000F070FD616800F0F9FD0100DFF8AC0996
:1021B00000F068FDDFF8A879390001F069F902D86C
:1021C0005FF0040A19E05FF0814101F061F902D883
:1021D0005FF0030A11E05FF0804101F059F902D885
:1021E0005FF0020A09E05FF07F5101F051F902D877
:1021F0005FF0010A01E05FF0000ADFF8600949467C
:1022000000F040FD390001F043F901D8042715E042
:102210005FF0814101F03CF901D803270EE05FF047
:10222000804101F035F901D8022707E05FF07F51C6
:1022300001F02EF901D8012700E0002737A951F855
:10224000270051F82A1000F01DFD08904FF40050AF
:10225000FEF793FC09900120FFF719FB814601224C
:1022600006210120FFF7F9FA5FF0FF30FFF71CFBB2
:102270000021DFF8F008FEF7CFFCFFF737FB402125
:102280003CA8FEF771FB03204190EDB2002D01D078
:10229000002000E001204290606A4090206A3F9058
:1022A00001208DF80C0100208DF80D0101208DF822
:1022B0000E010C2214F1280146AD280000F0F6FFB3
:1022C0003CA8FEF710FF3C210AA8FEF74DFB206951
:1022D000002801D1002000E001200A904FF40060A6
:1022E000ADF842002020ADF8440000208DF84000F9
:1022F00011200E9000200F9001200B9001200D90D6
:1023000001200C9001208DF8410020691290E069B5
:10231000169001208DF8600001208DF861000420E6
:102320001490A069159000201390207D012801D100
:10233000202000E0002050F4A07017900AA8FEF7BB
:1023400037FE702119A8FEF70FFB00208DF8C000A2
:102350002069002801D1012000E002202D901F20DB
:102360002F90052032900B203190052034900B20C7
:10237000339000202E9000201D9000201E90FF2002
:102380001F902069002801D1402000E0802050F0FB
:102390000100199001201A904FF400751B954FF41D
:1023A000106BCDF870B0F6B2002E00F0A5805FF093
:1023B000FF30069000202090CDF8B08000208DF8EE
:1023C000840000208DF8850019A8FEF7B2FC18F5EE
:1023D00000684046FEF7ADFD01214FF49940FEF73D
:1023E0001BFC0120009908600120009948600098BA
:1023F00085600098C0F80CB00098FEF7ACFC4FF474
:102400007A7000F0F7FF14200199486024200199A8
:1024100008600198C0F808A00198FEF7B3FE3220CA
:1024200000F0E8FF06A8FFF78EFA060020690028F2
:1024300006D102200199486021200199086005E039
:102440000320019948602220019908600198876063
:102450000198FEF797FE322000F0CCFF06A8FFF7A8
:1024600072FA80462069002801D1402000E08020D7
:1024700050F0010000990860012000994860009820
:1024800085600098C0F80CB00098FEF764FC4FF42B
:102490007A7000F0AFFF3CAD142068602420286003
:1024A000C5F808A02800FEF76DFE322000F0A2FF5C
:1024B00006A8FFF748FA861B0496002005902069BD
:1024C000002804D1022068602120286003E0032056
:1024D000686022202860AF602800FEF753FE32209B
:1024E00000F088FF06A8FFF72EFAB0EB0808CDF839
:1024F000088000200390A2E0CDF8A480A1682068A5
:10250000FEF721FD289000202A9000202B9000202B
:102510002C900220209000208DF8840000208DF85F
:10252000850019A8FEF705FC0220FFF7BDF901217F
:102530004FF44060FEF770FB642000F05BFF3CADA1
:102540001420686024202860C5F808A02800FEF741
:1025500019FE01214FF48140FEF75EFB192000F0C7
:1025600049FF01214FF40140FEF756FB02210120F3
:10257000FFF7A1F90028F9D04CF2801600213000B5
:10258000FEF74AFB0220FFF78FF90320FEF7C1FD9B
:1025900004900420FEF7BDFD05902069002804D1B9
:1025A000022068602120286003E003206860222068
:1025B0002860AF602800FEF7E5FD01214FF481405F
:1025C000FEF72AFB192000F015FF01214FF401400E
:1025D000FEF722FB02210120FFF76DF90028F9D058
:1025E00000213000FEF718FB0220FFF75DF9032001
:1025F000FEF78FFD02900420FEF78BFD03900498F8
:10260000800304D50499DFF86C0301430491059815
:10261000800304D50599DFF85C0301430591029816
:10262000800304D50299DFF84C030143029103981B
:10263000800304D50399DFF83C0301430391039819
:102640004042039005984042059035AD04AA02A986
:102650002800FEF7CDF9D5E90001CDE90001606859
:10266000089900F00FFB009900F098FB009060685B
:10267000089900F007FB019900F090FB0190606B56
:10268000002806D1009807990860019807994860CA
:1026900009E06846FEF713FA079908606846FEF7F6
:1026A00023FA079948605FEA897004D40022022166
:1026B0000120FFF7D2F85FEA497004D40022042118
:1026C0000120FFF7CAF809994FF40050FEF748FAC5
:1026D0000020199000201A9000201B9000201C90D0
:1026E00019A8FEF738FB002067B0BDE8F08F0000A6
:1026F000748B00002DE9F047B4B004004FF400687B
:10270000002C02D17FF002001AE12069022802D3D6
:102710007FF0010014E16069022802D37FF001001C
:102720000EE1E068012802D15FF0010A01E05FF0EC
:10273000000A2069002802D0012823D036E0504644
:10274000C0B2002802D042F2BC2501E042F2682566
:102750006069012804D128260E275FF0030903E0F1
:10276000072602275FF00009FFF7C0F8A069019073
:10277000E0690290002003905046C0B2002818D0B3
:10278000002017E05046C0B2002802D042F2B8251F
:1027900001E042F264256069012802D105260E2776
:1027A00001E019260E275FF00309DDE77FF0010045
:1027B000C6E00120049001208DF8140000208DF85F
:1027C000150001208DF8160001A8FEF7E9FC242071
:1027D000069014200790CDF8209006A8FEF7D2FCB2
:1027E000002009904FF4F860ADF83E001F20ADF8CE
:1027F000400000208DF83C0000200E9000200A9040
:1028000000200B9000200C9001208DF83D00192035
:102810000D9009A8FEF7CCFB20691C9060691D9003
:102820005FFA8AFABAF1000F01D0072000E01B20FE
:102830001E9000208DF8BC0001202C9008202E90C6
:10284000052031900B203090052033900B203290E2
:1028500000202D9001201890012019904FF4007055
:102860001A904FF410601B9001208DF88000012019
:102870008DF8810000201F90CDF8AC8018A8FEF7DD
:1028800058FA0021DFF8DC02FEF7C6F90121DFF873
:10289000D802FEF7C1F9192000F0ACFD0122042195
:1028A0000120FEF7DAFF42F23024DFF8C0122000E8
:1028B000FEF756F90021280080B2FEF751F942F2E6
:1028C00048084FF400614046FEF74AF94FF40049CA
:1028D0000A2000F08FFD4FF47A7000906846FFF7F1
:1028E00032F801000098002809D10020FEF783FC8F
:1028F00000212000FEF734F97FF0090020E0B1EB61
:10290000090107FB01F797FBF6F1012903DB40F60C
:10291000FF70411A00E04942280080B2FEF720F91A
:102920000A2000F067FD4FF400614046FEF718F9F9
:102930000A2000F05FFD00212000FEF711F90020C1
:1029400034B0BDE8F08700003C870000008096406E
:10295000010020420000204200E0FF440100484303
:10296000000048430100A0430000A0430000C84409
:10297000400E11000000FCFF74830000888B0000F3
:102980000150C34B2DE9F0439DB004000D00002C15
:1029900002D17FF00200D6E0002D02D17FF00200CC
:1029A000D1E060685FF07E5100F0B0FF02D27FF0AE
:1029B0000100C8E008A8FEF7DEFC0120FEF767FF73
:1029C000060001224FF400410120FEF746FF5FF0B0
:1029D000FF30FEF769FF0120059000208DF81900F7
:1029E00000208DF81A0000208DF81B0001208DF8C2
:1029F00018000020079005A8FEF783FC5C480490AF
:102A000000200090012002902068019001208DF8A4
:102A10000C006846FEF7F5FC012000902068401C81
:102A2000019001200290534804906846FEF7E9FCAB
:102A300000208DF8700000200C9001200D900120E6
:102A40000B900420189061685FF0844000F0A6F9B4
:102A50005FF07C5100F00EFA00F0B2FC401F1490C1
:102A6000032019905FF0FF301590149F1998C71933
:102A7000BF1C0BA8FEF703FD4FF40040FEF714FF48
:102A80000120FEF7A6FD4FF400410120FEF713FFE1
:102A90000028F8D0FEF7EDFC80460020FEF799FDF7
:102AA000042204210020FEF7A9FD012000902068E7
:102AB000401C0190022002902F48049001208DF8C4
:102AC0000C006846FEF79DFC0120FEF770FC4FF4F9
:102AD0000040FEF7E9FE0120FEF77BFD4FF40041C8
:102AE0000120FEF7E8FE0028F8D0FEF7C2FC814680
:102AF0004FF400410020FEF7DEFE0020FEF769FDE6
:102B000008A8FEF7FEFBF60B16F001063200D2B263
:102B10004FF400410120FEF7A0FE4FF40040FEF705
:102B2000C3FE380000F0DCFCA16800F037F90400B7
:102B3000B9EB0808404600F0D3FC0100200000F08B
:102B4000A1F8286000201DB0BDE8F0830000994086
:102B5000008009450000FA440000C84200803B455F
:102B600000001041E0FF3900E04E1100AFA587DE04
:102B7000308D0000348D0000C88C000062F30F22FD
:102B800062F31F42401810F0030308D0C91A1FD384
:102B9000DB0748BF00F8012D28BF20F8022D1300E5
:102BA00030B414461546103928BF20E93C00FAD845
:102BB000490728BF20E90C0048BF40F8042D8900D0
:102BC00028BF20F8022D48BF00F8012D30BC704707
:102BD000C91818BF00F8012DCB0728BF00F8012D38
:102BE0007047F0B40246106895681318506803EBFC
:102BF0005004C00748BF4D44A3422DD013F8016BC9
:102C000016F0030004BF13F8010BC01C31090F2993
:102C100007D113F8011B0F3103E013F8017B05F80E
:102C2000017B401EF9D10029E6D013F8010BC6F351
:102C30008106032E08BF13F8016B00EB062040420B
:102C400028440026B71E8F421EBF10F8017B05F8EE
:102C5000017B761CF6D1CFE7F0BC02F10C00704787
:102C600010F0004C68B148BF4042B0FA80F1884093
:102C7000D1F19D014CEAC15C010671F100414CEBC0
:102C8000102070474FF0FF0C1CEAD0531DBF1CEA08
:102C9000D1526345624543E09B1A5FEACC7280EAF9
:102CA000010C42EA01211CEA020C42EA0020421A0D
:102CB00038BF01EB420253F17E034FEA1121B2FB10
:102CC000F1F001FB102260F3D63C4FEA0222B2FB86
:102CD000F1F001FB102260F3CE1C4FEA0222B2FB9E
:102CE000F1F006DDFF2B29DA5CEA500040EBC3501F
:102CF0007047C3F1020301FB1022192B40EA4C017B
:102D00000CF0004C41F0807121DC21FA03F0C3F19A
:102D100020039940114371F1004250EB0C007047C1
:102D200063451ABF0CEAD152624512E080EA010CF9
:102D300000180CF0004C06D049181AD10CF0004CC9
:102D40004CF0FF407047C94208BF6FEA020C604672
:102D50007047634506D1B2EB0C02F5D001F000419B
:102D6000484070474A0212BF0846484000F0004001
:102D700070474AB90902B1FA81F2914043B19B18F8
:102D8000C00140F0004092E7C90141F000415242C9
:102D90000002B0FA80F39840D31A88E7FF2212EAC3
:102DA000D05C1DBF12EAD153944593422BE09C4462
:102DB000D30780EA010243EA002043EA01211A40D6
:102DC000A1FB0030C04238BF00187CF17F010BDB53
:102DD000FE294ADA5B0842EAC15153EA006373F103
:102DE000004C51EB10207047D1F1080CDCF12001B0
:102DF0002FDB5B0810FA01F10B4320FA0CF073F1A2
:102E000000415041704794451CBF02EAD1539342A0
:102E100080EA010202F000421DD0400019D04900B2
:102E200017D05BB9634514D00902B1FA81F3994018
:102E3000BCEB030CC00140F00040C1E70002B0FA57
:102E400080FC10FA0CF0B3EB0C0CC90141F000410E
:102E5000B6E71000704740000AD0490008D010F1D2
:102E6000807F94BF11F1807F02E042F0FF40704705
:102E7000D043704790EA010F40F1728081F0004129
:102E8000431A4FF000423EBF5340C01AC918D3093D
:102E90005FEAD05C13EB400F34BFB3EB410F40E06F
:102EA0007CEBD1530CD342EA012122D8D1EB402054
:102EB00009D3400A28BF5FEA500140EBCC5070476D
:102EC000401A15D04002B0FA80F2521C9040400ADD
:102ED0004FEA3C23B3EB026384BF00EB730007E0CF
:102EE00040F400001A16DB07C2F10102D04018437B
:102EF0007047182BFCDC31FA03F202FA03F3591A7B
:102F000038BF42F00102D2EB40203CBF0018ACF1C8
:102F1000010C5FEACC5CC20572F100414CEB502021
:102F2000704713EB400F0FD2C94209D0ACEBD1531D
:102F3000022B03DB4902172BDDDD70479143401A5A
:102F4000C042D5D10020704713EB410FD0D36FF0B2
:102F50000000704790EA010F7FF592AF81F00041C9
:102F6000421A3CBF801A8918C0F3C752FF2A4FF09B
:102F7000004C22D0C1F3C7534BB3D21AD2F119037C
:102F80002EDD4CEA01214CFA03F321EA0303D14080
:102F90004CEA00226FF3160052180FD353EAC253C3
:102FA0004CEA520273EB0C0C50EB1220420012F16F
:102FB000807F38BF70476FF31600704753EA026393
:102FC00022EA0C0273EB0C0C50EB12207047490202
:102FD00012BF9A4200EB5120EFE7D2F11703D2D58E
:102FE00070470268531C036011707047C0F3C751EB
:102FF00081B1FF2906D0C110400721F0E04101F165
:103000006051704741020CBF40F4E0016FF0004195
:103010000020704700F0004100020AD0B0FA80FCA6
:1030200000FA0CF001F16051A1EB0C5101EBD02141
:103030004005704740F2FF7C0B0D4DD0634566D2D2
:1030400030B421EA035141F4801103F2FD3C5FEA00
:103050005C0C01D300184941890041EA907180005D
:103060004FF440140023E202D50AB1F5100107D451
:103070006D081DD2091B641900184941491BF7D579
:103080006D080AD20919641B00184941491BEFD584
:103090006D08F7D301E0520817D0C01861419B1AA0
:1030A000AC4100184941801AA941F4D452080AD011
:1030B000C01AA1419B186C4100184941801AA941CE
:1030C000E9D45208F4D15B1C6C4161084FEA33002B
:1030D00001EB0C5130BC704750EA0103FBD030B417
:1030E000B1FA81F311B9B0FA80F41B190B3BB3F1BB
:1030F00020042FBF00FA04F19940C3F1200420FA04
:1031000004F438BF21439840D3F101039DE76345A0
:1031100014BF50EA410CDEE711F5801FDBD8D9431C
:10312000AFF300807047FEE701F000428B1AA3F175
:103130006051B1F5801F0ADBB1F17F6F1FD242EA07
:10314000C102C10071F1004142EB507070470B1594
:10315000C3F10903212B10D2890241EA9051800268
:103160000128494141F0004121FA03F0C3F1200355
:10317000994071F1004150417047100070476FF065
:10318000000013EB103F5CBF000E42EAC0507047D6
:103190002DE9F84C0F465900491584B0064611F147
:1031A000010F1EBF7800401510F1010F42D0F80F3B
:1031B0001ABF27F0004708240024D80F1CBF23F0B3
:1031C000004384F00604CDE90223DDE90201002971
:1031D00008D500254FF0004B281A6BEB010BCDE909
:1031E000000B01E0CDE900013900304605D500258E
:1031F0004FF0004B281A6BEB0101DDE900AB8B456A
:1032000009DC01DB824506D21046194632463B46B0
:1032100000F058FA3BE0DDE9020120F0000531F052
:10322000004104BF002D002133D03046394600F064
:1032300049FA2EE078004FEA605E1EF1010F04D1DA
:10324000380302D0304639462CE011F1010F04D189
:10325000180302D01046194624E011F1010F09D1DC
:103260001D0308BF1EF1010F04D1380302D1002055
:103270000B4901E000200021FE0FF400DA0F18BF17
:1032800084F006041EF1010F03D13A0301D184F04A
:103290000204224605B0BDE8F04C00F04BBB000034
:1032A0000000F03F05B0BDE8F08CFEE762B38B078D
:1032B00008D0521E11F8013B00F8013B00F02480B9
:1032C0008B07F6D1830740F0208000BF103A07D368
:1032D00030B4B1E83810103AA0E83810F9D230BC58
:1032E000530724BFB1E80810A0E8081044BF51F804
:1032F000043B40F8043BD20724BF31F8022B20F8EE
:10330000022B44BF0B7803707047083A07D3B1E82B
:103310000810083A40F8043B40F804CBF7D25307B2
:10332000E4E7FEE7884204D040EA010C1CEB0C0FF6
:1033300070474FEA400C1CF1807F98BF8042704775
:10334000D2B2203A22BF00FA02F100207047524266
:10335000D041D2F1200291404140D04090404140C4
:103360007047FEE711F0004303D54942404261F146
:103370000001B1B1B1FA81F241409040C2F12002A6
:1033800061FA02F181EA000018BF40F0010002F189
:103390009D01020643EAC15172F1004241EB102047
:1033A000704758B1B0FA80F29040C2F19D02010618
:1033B00043EAC25271F1004142EB10207047FEE730
:1033C000C10DD1F19E0104D4000240F00040C8407C
:1033D00070476FEAE0707047010049B2002908D4D5
:1033E000012210F01F018A40234940B2400941F8F0
:1033F0002020704710B50400002C1DD00A2000FBCF
:1034000004F01E4988420DD24FF4827044431C4898
:1034100004601C48052101600168C903FCD5002136
:10342000016009E020004008FFF7E4FF14F001000C
:1034300010EB5400FFF7DEFF10BD10B5134C002257
:103440000221200000F076FB01220221200000F082
:103450009BFB012201214FF4004000F0CDFB042032
:10346000FFF7BAFF002010BD80B5082000F0C0FBB8
:1034700001200549086001BD00E100E09DD8090078
:1034800014E000E010E000E0940900208000024019
:1034900040EA010C1CEB0C0F4FF0807C07D305D0E9
:1034A0001CEB400F9CBF1CEB410F884270471CEB8C
:1034B000400F98BF81427047C0F3C751D1F19E01C0
:1034C00008DD020242F00042CA4002EBE07282EAEA
:1034D000E07070477FEAE07080F000407047FEE7E0
:1034E00050B1B0FA80F18840C1F19D01C9050206D2
:1034F00072F1004241EB10207047FEE730B540F218
:10350000FF7C1CEA11541DBF1CEA13556445654538
:103510003FE0641981EA030C6FF35F530CF0004C39
:1035200043F48013C90241F0004141EA505EC502F4
:103530001100A5FB020200284FF00000EEFB012065
:103540004FF00001E3FB052118BF42F001024018D3
:1035500000214941E3FB0E01A4F580640D0302D272
:1035600092184041494154F1010470DD450872F15F
:10357000004250F1000051EB0451A1F5801102D43A
:1035800041EA0C0130BD40F2FF7E4CEA0E510020B2
:1035900030BD0CEA1355644518BF654581EA030C3C
:1035A0000CF0004C41D050EA410E1CBF52EA430ED1
:1035B00002E06146002030BD24422C441BD15FEA6A
:1035C000050EF6D0090302BF01460020AEF1140E2D
:1035D000B1FA81F5AEEB050401FA05FE0C35C5F133
:1035E000200100FA05F5C8404EEA000E6FF35F5364
:1035F00043F480139CE733F00043B3FA83F504BF30
:10360000B2FA82FE75440B3D641BB5F1200E2FBF4C
:1036100002FA0EF3AB40C5F1200E22FA0EFE38BFBF
:1036200043EA0E03AA40641C7CE750EA410E14BF33
:1036300052EA430E6FF000014FF4001515EB430FF3
:103640008EBF194615EB410F9DE7B4D830BDD4F1BC
:103650000104B4F120050FDAC4F12005520828BF97
:1036600042F0010210FA05FE01FA05F57244E2BFCC
:10367000E0402843E1400FE0352C9ADCC5F12004FE
:1036800052EA400220FA05F218BF42F0010231FA74
:1036900005F0A1400A43002172F1004250F1000000
:1036A00051EB0C0130BDFEE750B1B0FA80F188401B
:1036B000C91CC1F58461090501EBD02140057047A3
:1036C00001467047F0B540F2FF7581EA030C0CF03B
:1036D000004C15EA11541DBF15EA1357AC42AF4216
:1036E000E5E0BC41C1F31301C3F31303801A994110
:1036F00043F4801304D2641E0018494180185941D4
:10370000C90241EA5051B1FBF3F603FB1611A2FBCB
:103710000675D7EBC020A94102D2761E8018594108
:10372000C90241EA5051B1FBF3FE03FB1E11A2FB9B
:103730000E75D7EBC020A94103D2AEF1010E80185F
:103740005941890241EA9051760546EA8E2EB1FB35
:10375000F3F603FB1611A2FB0675D7EB8020A941F7
:1037600002D2761E80185941C90241EA50514EEAF0
:10377000060EB1FBF3F603FB1611A2FB0675D7EBA1
:10378000C020A94102D2761E80185941C90241EADF
:103790005051B1FBF3F703FB1711A2FB0735D3EB35
:1037A000C020A94167F100070CBF004247F00107A4
:1037B00066F3D5274FEA1E31B80814F5806412DD90
:1037C000BD0775F1004250EB0E5051EB045111F55D
:1037D000801F5CBF41EA0C01F0BD4CF07F6141F0FD
:1037E000E0410020F0BDBD076D0840EA0E5041F4F5
:1037F0008011D4F10104B4F120060ADAC4F12006E4
:103800000200E04001FA06F3E1401843B2401543DC
:103810000EE0342C13DCC6F1200445EA40056D08A7
:1038200020FA06F2154321FA06F0A1400D430021CB
:1038300075F1004250F1000051EB0C01F0BD002089
:103840005FEA0C01F0BDCFB992185B41B3FA83F780
:1038500004BFB2FA82F6BF190B3FB7F120062FBFA3
:1038600002FA06F3BB40C7F1200622FA06F638BF7B
:103870003343BA401CB1E419641E33E77F4231F090
:103880000041B1FA81F404BFB0FA80F6A4190B3CF0
:10389000B4F120062FBF00FA06F1A140C4F12006C2
:1038A00020FA06F638BF3143A0403C1B1AE7AC4271
:1038B0001ABF05EA1357AF4212E050EA41061CBF97
:1038C00052EA4306BFE750EA4107304661461CBF53
:1038D00041EA0551F0BD52EA430C08BFC143F0BDB7
:1038E00000204FF4001616EB410F98BF16EB430F64
:1038F00008BF16EB410F24BFC14305E016EB430F91
:103900000CBF61464CEA0551F0BDFEE740EA010CF0
:103910001CEB0C0F4FF0807C07D305D01CEB400F45
:103920009CBF1CEB410F814270471CEB410F98BFBD
:10393000884270472DE9F04D5FEA0108044605D53D
:1039400000264FF00047301A67EB01010026624F56
:1039500004D54FF00043B61B63EB07071546B94289
:1039600008BFB04203D15D4CDFF8748196E05D4B37
:103970005D4A002B04D54FF00047B21A67EB0303F2
:103980008B4220DC01DB82421DD2584E584F32461A
:103990003B4620464146FFF7B1FD0022554B00F063
:1039A00065F982468B4632463B462046414600F04A
:1039B0005DF902460B4650465946FFF783FE044622
:1039C000884645F0010500225FF0795328F0004158
:1039D000204608D54FF00047921A77EB030302D533
:1039E000101A67EB01018B4258DC01DB824255D291
:1039F0002246434620464146FFF780FD06460F46D5
:103A000032463B4620464146FFF778FD82468B46CC
:103A100039483A4932463B46FFF770FD384A394B40
:103A200000F024F932463B46FFF768FD364A374B33
:103A300000F01CF952465B46FFF760FD2246434604
:103A400000F014F9044688463148324932463B4674
:103A5000FFF754FD304A314B00F008F932463B463F
:103A6000FFF74CFD2E4A2F4B00F000F932463B4643
:103A7000FFF744FD2C4A2D4B00F0F8F832463B4648
:103A8000FFF73CFD0022144B00F0F0F802460B4615
:103A900020464146FFF716FE04468846A80748BF61
:103AA00088F0004815F007000CD021497944803196
:103AB00001EBC0024346D2E90001224600F0D6F8ED
:103AC00004468846280747BF88F000412046204624
:103AD0004146BDE8F08D00BF0000F03F182D445472
:103AE000FB21E93F1426D13F56CD9E5EAA4C58E8F3
:103AF0007AB6FB3F0000F0BF845D57134B57B03FD1
:103B0000B2934C19ED5EE43FBEDE02B90240F83FCD
:103B1000DE39028FC7C0743F8AAB1283000CC83FE6
:103B200024D7E508B6D8F03F0F34580E5895FD3F1E
:103B3000B04A0000F0B400230126046800250BE021
:103B4000314207D003276B009F40BC436B0012FA41
:103B500003F31C4376006D1C102DF1D3046001208B
:103B6000F0BC704783888B43002A01D019430B00B7
:103B700083800120704703898B43002A01D01943B9
:103B80000B0003810120704783898B43002A01D0F9
:103B900019430B0083810120704701830120704786
:103BA000818301207047018401207047002A07D1DA
:103BB000028D8A43002B01D011430A00028506E0E2
:103BC000828D8A43002B01D011430A008285012097
:103BD0007047838C8B43002A01D019430B008384E8
:103BE00001207047008E70470186008E7047FEE707
:103BF0001C49086001207047002905D11A490A684C
:103C000032EA0000086029E017490B6803430B60A3
:103C100008280BD080280DD0B0F5006F0FD0B0F57C
:103C2000004F11D0B0F5801F13D017E00868024391
:103C30000A6013E0086850EA021008600EE00868A5
:103C400050EA0220086009E0086850EA0230086083
:103C500004E0086850EA42500860FFE70248006844
:103C60007047000090C0044080C0044070B491EAE6
:103C7000030F4FF0004540F1BF806B40841A71EB99
:103C8000030604D26E40001BB141121973414FF478
:103C9000001C1CEB410F34BF7CEB430683E00C0D92
:103CA000A4EB1356362E00F37C80012E45EAC32385
:103CB00041DC43EA525312BFD20292025B08240550
:103CC00045EAC12141EA5051D2EBC020994125D4A7
:103CD00007D1B0FA80F610FA06F162D00020203643
:103CE00008E0B1FA81F6B140C6F1200220FA02F2F2
:103CF0001143B0404FEAF474B4EB465434F001067B
:103D00004FEA74040AD8D6F50016760D04F0004484
:103D1000F04061FA06F25040F1404840C00A40EAE3
:103D2000415021F0004128BF5FEA500550F10000EA
:103D300044EBD12135E0DB0A45EAC121C90AB6F1DD
:103D400020050EDD42EA0242120CC5F1200603FAFC
:103D500006F6EB4042EA06056D42984161F100012A
:103D60000DE062FA06F5F240554063FA06FC82EA7D
:103D70000C02F3405A406D42904161EB030111F493
:103D8000801F05D1641E620502D06D00404149418B
:103D900021F48011430875F1004350F1000041EB1C
:103DA000045170BC70471CEB410F15D223F0004347
:103DB00052EA43060BD04FEA4C0CBCEB410F04D83F
:103DC0000C0D661E342EB7DDEBE7801A994150EAE0
:103DD000410608BF0021E4E708BF1CEB430F28BFE2
:103DE0006FF00001DDE7000070B491EA030F4FF0BF
:103DF00000457FF543AF6B40841A71EB030603D295
:103E0000001BB141121973414FF4001C1CEB410F10
:103E100034BF7CEB430442E00C0DA4EB1356352E6B
:103E20004FDC45EAC323DB0A45EAC121C912B6F1DA
:103E300020050DDD63FA05F6EB4086EA0305124224
:103E400018BF45F00105C01851F100010CD213E074
:103E500062FA06F5F2405540F3415A40B340F34050
:103E60005A408018594107D349085FEA30005FEA99
:103E7000350528BF45F0010501F58011420875F1AF
:103E8000004250F1000041EB04514E0016F5001FB6
:103E900070BC38BF70470020090D090570471CEB46
:103EA000410F10D252EA43060BD0BCEB410F05D8AC
:103EB0000C0DAB43661E342EB6DD02E0AB4380181A
:103EC000594170BC704770BC7047FEE740F020005D
:103ED00070472DE9F04FAFB0914604910DF14201CA
:103EE000389A01914A7000210DF1910283461E46D5
:103EF0000D912E920AE019F8011B0498D84700286A
:103F0000049000F02D850D98401C0D9099F800004C
:103F100050B12528EFD10021002207910892099184
:103F20000A920B910C9204E00D9800F01BBD41F039
:103F3000010119F8010F2028F9D023280CD02B28D3
:103F400004D02D2805D0302809D00BE041F0020123
:103F5000EFE741F00401ECE741F00801E9E741F047
:103F60001001E6E72A280DD1326852F8040B3260BE
:103F700000280F9003D540420F9041F0040109F151
:103F8000010914E00F92DFF83C3B0AE00F989842D9
:103F900005DA00EB800402EB4402303A0F9209F19B
:103FA000010999F80020A2F130000A28EED399F80F
:103FB00000002E2803D04FF0FF320E9227E019F8B0
:103FC000010F2A2807D1306850F8042B30600E9278
:103FD00009F101091BE02D280CBF09F1010900209E
:103FE00000220E92DFF8DC4A0BE040B90E9AA242A2
:103FF00005DA02EB820503EB4503303B0E9309F132
:10400000010999F80030A3F130020A2AEDD3ADF886
:1040100040100FF6F42099F8001000F0ABFD08B145
:1040200019F8010B8DF842009DF84200682805D16F
:1040300099F8000068280CD1622106E06C2804BFC2
:1040400099F800006C2804D171218DF8421009F113
:10405000010912A8069019F801ABBAF1250126D082
:104060002039022940F26681133900F0C0830B39F0
:1040700000F04684491E00F0FC83491E022940F2EC
:104080005981091F00F0F583491F00F0D980491EAE
:1040900000F0AD83491E00F0C480C91E0CD0891EFB
:1040A00000F0A583C91E00F0A28300F032BC0122FB
:1040B0000792252100F02ABC306850F8044B30608C
:1040C000002C059440F09B8001994878002800F06E
:1040D00092804FF0FF340FF6682000F057FD201A51
:1040E00040F03E8400F021BC01236A4602A95846F4
:1040F00000F0F2FC002840F03384641EF4D1079CE9
:1041000012AF64B117F8011B0498D8470028049037
:1041100000F026840D98401C641E0D90F2D10A9C7C
:104120003020002C8DF800000ADD01236A4602A928
:10413000584600F0D1FC002840F01284641EF4D1EF
:10414000059F089C64B117F8011B0498D847002804
:10415000049000F005840D98401C641E0D90F2D16F
:104160000B9C3020002C8DF800000ADD01236A46EC
:1041700002A9584600F0B0FC002840F0F183641E0C
:10418000F4D105980899099C471864B117F8011BE8
:104190000498D8470028049000F0E2830D98401C52
:1041A000641E0D90F2D10C9C3020002C8DF8000084
:1041B0000ADD01236A4602A9584600F08DFC00285A
:1041C00040F0CE83641EF4D19DF8400041077FF596
:1041D0009DAE2020002D8DF800007FF797AE0123C3
:1041E0006A4602A9584600F077FC002840F0B883E0
:1041F0006D1EF4D18AE60FF66410059095E30E9DCE
:10420000002D04D5204600F0E1FC044607E02A46D4
:10421000204600F0F7FC002814BF041B2C4608942D
:1042200083E3316851F8040B316020F00004002171
:1042300021F0FF35CDE9024512AB059378215BE310
:104240000199487820B14FF0FF340FF6C40044E7DD
:104250009DF84200622853D0682815D06A2836D0CD
:104260006C2806D071283CD0742825D07A2818D024
:1042700053E0316851F8040B3160002857D14FF0FA
:10428000FF340FF6A40028E7316851F8040B3160C1
:1042900020B94FF0FF340FF690001EE70D99018012
:1042A00043E3316851F8040B316000283FD14FF0EF
:1042B000FF340FF6740010E7316851F8040B3160D9
:1042C000002834D14FF0FF340FF65C0005E7316869
:1042D00051F8040B316070B94FF0FF340FF648000D
:1042E000FBE6316851F8040B316020B94FF0FF3420
:1042F0000FF63400F1E60D9AD317C0E9002314E35A
:10430000316851F8040B316020B94FF0FF340FF6DB
:104310001800E2E60D99017007E3316851F8040BCB
:10432000316020B94FF0FF340FF2FC70D5E60D99E3
:104330000160FAE29DF842004C2807BF3168CB1DAE
:104340003068C31D23F007033360D3E9000108334D
:104350003360CDE90201C80F02D007982D210AE091
:10436000BDF84000810702D507982B2103E0C00764
:1043700005D50798202112AB1954401C079012A8AC
:104380000799DDE9024543180E980593002824AFEC
:1043900002D506200E9005E001BF4AF020006728F4
:1043A00001210E91DDE902014800421512F1010FD1
:1043B0000DD108030BD0AAF1610203201A2A08903C
:1043C00002D20FF29C710FE00FF298710CE012F123
:1043D000010F0ED109030CD1AAF1610203201A2AA0
:1043E000089017D30FF2847103221846FEF75EFF80
:1043F0009BE2DDE902016A4600F030FCCDE90201F2
:1044000020F0000231F0004308BF002A05D100254A
:104410000024B4E00FF25071E6E70099DFF8A82617
:1044200047F29750414391FBF2F2009225F000458C
:10443000C2F10702002A04DD2046294600F01FFBD6
:104440000BE052420020DFF8841600F018FB024611
:104450000B4620462946FFF735F904464AF020006E
:104460000D46662806BF009800F10A084FF00608BE
:104470000E988044B8F1140FC8BF4FF014083020D4
:104480008DF890000DF1910000E03846B8F1000F72
:1044900037DD07462046294600F018FC01460A464B
:1044A00007F1080304200A27B2FBF7F707EB870E92
:1044B000A2EB4E02303203F8012C0A22B7FBF2F2D3
:1044C00002EB820EA7EB4E073037401E03F8027D49
:1044D000E9D1A8F10808B8F1000F03F10807D4DD0D
:1044E0000846FFF7E1F802460B4620462946FFF74B
:1044F0007BFC0022DFF8D835FFF700F804460D46B4
:10450000C8E72E99401A0DF1910704E00099491E61
:10451000401E00917F1C39783029F7D04AF02001E5
:10452000662902D1009D6D1C03E065290CBF0125A1
:1045300000250E996D18A842B8BF451E002D1DD448
:10454000854204DA785D3428C8BF392000DC302089
:1045500029467A1E531800E06D1E13F80149491EC2
:104560008442F9D0392802D1785C401C7854002963
:1045700004D50098401C17466D1C0090009C28B282
:10458000DDF83880002802DC01250FF2E4574AF0FC
:104590002000662808BF641C16D067285BD120B2B3
:1045A00010F1040F43DB404541DA9DF84000641CE4
:1045B000010703D428B24045D8BF804620B2B8EBEB
:1045C000000848BF4FF000080FFA84FABAF1000F54
:1045D00000F3AA800898411C0891302205990A54DA
:1045E000B8F1000F03DC9DF84000010705D50898DD
:1045F000411C08912E2205990A5418EB0A0FB8BFE6
:10460000C8F1000424B26042A0442AB20B90904545
:10461000B8BF4546059B08982DB209952A463946EC
:104620001844FEF743FEA8EB05000C90C8E028B242
:10463000404504DA9DF840100A0758BF8046B8F19B
:10464000010848BF4FF00008BAF1670F0CBF4FF0E8
:10465000650A4FF0450A0898411C0891B8F1000F0F
:10466000059917F8012B0A5403DC9DF84000010757
:104670001BD50898411C08912E2205990A54B8F1BF
:10468000000F12DD6D1E28B28045B8BF4546059863
:10469000089B2AB239461844FEF708FE08982DB246
:1046A00028180890A8EB05000B9005980899084475
:1046B00022B2002A80F800A003D42B224270811C71
:1046C00004E02D2141701446811C6442002021AA7F
:1046D0000AE023460A2493FBF4F404EB8405A3EBDD
:1046E000450302F8013B401C24B2002CF1DC0128F8
:1046F00006DC4AF02002652A04BF302201F8012BB3
:10470000002821AA08D1302001F8010B06E0401E44
:10471000135C303301F8013B0028F8DC059A089857
:104720001044091A09914BE028B221B288421DDADF
:104730000598089B2AB239461844FEF7B7FD089938
:104740002DB269180891AAEB0500B8F1000F0B9083
:1047500003DC9DF84000020705D5059A2E20505431
:104760000999491C0991CDF8308029E00598089BEA
:1047700022B239461844FEF799FD08982D1B504483
:10478000B8F1000F089003DC9DF840100A0704D52B
:10479000411C08912E2205990A5428B28045B8BFC1
:1047A00045460598089B2AB207EB0A011844FEF714
:1047B0007DFD08982DB228180890A8EB05000B90F5
:1047C0009DF8400000F01400102840F0AE80079AD9
:1047D00008990B988A18099982180C988A188218D7
:1047E0000F98824280F2A180821A0A929DE09DF881
:1047F0004200622808D068280CD06A2810D06C28A3
:1048000018D071280CD015E0316851F8040B3160D4
:10481000C0B213E0316851F8040B316080B20DE092
:104820003068C21D22F007023260D2E9000108326E
:10483000326004E0316851F8040B31600021CDE9A9
:1048400002019DF84000010751D5DDE90223002B4C
:1048500008BF002A4BD04AF02000782847D107989B
:1048600012A930220A54401C431C079301F800A0EF
:104870003DE09DF84200622808D068280CD06A28E4
:1048800010D06C2818D071280CD015E0316851F880
:10489000040B316040B213E0316851F8040B316011
:1048A00000B20DE03068C21D22F007023260D2E98A
:1048B00000010832326004E0316851F8040B3160C5
:1048C000C117CDE90201002902D507982D210AE080
:1048D000BDF84000810702D507982B2103E0C007EF
:1048E00005D50798202112AA1154401C079012A840
:1048F000079901440591514602A800F036F814E0EA
:1049000001200790306850F8041B30608DF8481083
:104910000BE001212522BAF1000F07918DF8482004
:1049200003D0022207928DF849A00F9A07980A999E
:104930000C9D121A0898521A0B99121A0998521AB9
:10494000121A9DF84000551B41073FF5D8AB2020B7
:10495000002D8DF800007FF7D2AB2C46FFF7C4BBCB
:104960004FF0FF302FB0BDE8F08F2DE9FC47074630
:104970008A463C6950466F2808BF082505D0FFF7D6
:10498000A5FA782814BF0A251025D7E900013C268E
:1049900080468946BAF1640F18BFBAF1690F05D194
:1049A000002903D5D8F1000869EB4909B9F1000FD6
:1049B00008BFB8F1000F0CD1386B50B9082D3AD1AF
:1049C00097F83800010736D530223B2684F83B2083
:1049D00031E08DF800A0404649462A46EB1700F02A
:1049E00087F93032D0B2761E3A2801960EDAA255F7
:1049F000404649462A46EB1700F07AF980465FEABE
:104A0000010908BFB8F1000F05D108E09DF80000CA
:104A10001218513AEBE7F868A1198842DBD3082D48
:104A200009D197F83800010705D5A05D302802D0DC
:104A3000761E3020A055C6F13C02BA61A119F9607A
:104A4000386B824208DA821A3A624FF6EF70398F79
:104A500001403987BDE8F38700280ED597F8380064
:104A600000F01400102808D17B6B7969386A5B1A52
:104A70001B1A9A1A002AC8BF3A62BDE8F3872DE9CB
:104A8000D04306460F4614464FF00008DFF8449026
:104A900012E0E00707D542464B4630463946FEF75E
:104AA0002DFD06460F464046494642464B46FEF718
:104AB00025FD641080468946002CEAD130463946EF
:104AC000BDE8D083CBCCCC0CA08601000000F03F29
:104AD00084D7974100002440F8B505460E46174696
:104AE0001C4600205CB117F8011BB068A847B060F5
:104AF00030B1F06A401CF0620020641EF3D1F2BDB8
:104B00004FF0FF30F2BD0000686A6C747A4C000010
:104B10007072696E74665F733A20256E20646973E3
:104B2000616C6C6F776564007072696E74663A20B0
:104B300062616420256E20617267756D656E740018
:104B40007072696E74665F733A20626164202573C7
:104B500020617267756D656E7400000000000000D2
:104B60006E616E004E414E00696E6600494E460011
:104B70003000FEE7C9B202788A421AB11CBF10F8B1
:104B8000012FF9E718BF00207047FEE780B500B994
:104B900006A005490B681BB122220021984701E0BD
:104BA00000F0BEF9222002BDCC090020636F6E73B5
:104BB000747261696E742068616E646C65723A200B
:104BC000626164206D6573736167650000F10103C4
:104BD000810704D010F8011B820781B1FAD1026865
:104BE000A2F10131914311F0803104BF50F8042F3C
:104BF000F6E709BAB1FA81F100EBD100401CC01A06
:104C00007047FEE7C9B2830706D0521E22D310F8C0
:104C1000013B9942F7D11FE0083A13D302F1040295
:104C200041EA012141EA014150F8043B121F21BF32
:104C30004B40A3F1013C2CEA030C1CF0803FF3D065
:104C4000C9B2001F083210F8013B521E28BF91EA7A
:104C5000030FF8D818BF0120401E704710B5144646
:104C600000F002F8226010BDC1F30A5343B14A00BC
:104C700012F5001F28D2A3F2FE32A1EB02517047B9
:104C800050EA410C20D001F0004C31EA0C01B1FA9D
:104C900081F204BFB0FA80F3D2180B3AB2F12003CC
:104CA0002CBF00FA03F1914041EA0C013EBFC2F172
:104CB000200C20FA0CF319439040524240F2FD338D
:104CC000D21A01EB0351704700227047400D40F2A9
:104CD0001E4C40EAC120BCEB115C40F0004003D404
:104CE0008CF30701C84070476FEAE1707047FEE738
:104CF000BBBBE1B1B2F5803F80F07E80022A1ED9B5
:104D00008C46B1FBF2F102FB11C31B0443EA1043D2
:104D1000B3FBF2FC02FB1C3380B240EA0343B3FB5B
:104D2000F2F002FB103240EA0C4000237047022AE6
:104D300005D98446B0FBF2F002FB10C270474AB1BD
:104D400005D100F0010249085FEA300070470022F7
:104D50000023704700F0E8B80B000200002100209B
:104D60007047904271EB030CF6D3B3F5803F2FD21E
:104D7000F0B5B3FA83F7B1FA81F4A7F10F0E3D1B3A
:104D80005340CEF1200602FA0EF2F3415340B5F142
:104D90000F0746D80F3C2C444140C4F12006A040E8
:104DA000F1414140B1FBF3F603FB1611A2FB0645AE
:104DB000001BA94102D2761E8018594180EA0102E7
:104DC00021FA0EF362FA0EF200215A403046F0BD8D
:104DD00030B4B1FBF3FC03FB1C11A2FB0C45001B20
:104DE000A94103D2ACF1010C8018594130BC0246F4
:104DF0000B46604600217047B2F1807F65D3F0B565
:104E0000B2FA82F7B1FA81F4C7F10F063D1B22FA1C
:104E100006F307F1110EF24120355A40B5F10F07A4
:104E2000B8D94140C4F12006A040F1414140B1FB56
:104E3000F3FC03FB1C11A2FB0C45001BA94103D290
:104E4000BCF1010C801859410F2F12D30F3FC90339
:104E500041EA5041B1FBF3F603FB1611A2FB0645F4
:104E6000D4EBC030A94102D2761E8018594146EADF
:104E7000CC3C07B34140C7F12006B840F141414066
:104E8000B1FBF3F603FB1611A2FB0645001BA9417B
:104E900002D2761E8018594180EA010221FA0EF3EF
:104EA000C7F1200462FA0EF20CFA07F05A402CFA0D
:104EB00004F13043F0BD80EA010221FA0EF3002133
:104EC00062FA0EF260465A40F0BD8C46B1FBF2F138
:104ED00002FB11C31B0243EA1063B3FBF2FC02FBAB
:104EE0001C331B024CEA002043EA1063B3FBF2FCC4
:104EF00002FB1C331B024CEA002043EA1063B3FBA5
:104F0000F2FC02FB1C331B024CEA002043EA106354
:104F1000B3FBF2FC02FB1C324CEA0020002370477A
:104F2000012000F003B8FEE77047FEE780B5AFF35D
:104F30000080024A11001820ABBEFBE726000200E9
:104F4000F8B5C8B0040000200220606510210020E0
:104F500000F0CAFC1021012000F0C6FC0121002055
:104F600000F02AFD0121012000F026FD200000F0C4
:104F7000DBFA0021DFF82C09FBF74EFE01208DF84B
:104F8000040001208DF8060001208DF805000020A6
:104F90008DF8100000208DF80F0000208DF80D0016
:104FA00000208DF80E0001208DF8080001208DF8FA
:104FB000070001208DF8090001208DF80A0001206A
:104FC0008DF80B0001A8FBF75CFE00200590002087
:104FD00006901E20099000200790002008900020D5
:104FE0000A9000208DF82C00DFF8BC58E16C2800F6
:104FF000FDF740FFDFF8B418FDF744FEFEF7E0F9D7
:10500000ADF83000E06DDFF8A818FDF73BFEFEF7C5
:1050100053FA00F29E60ADF82E00BDF8300080011A
:10502000BDF82E10884204DABDF82E00401EADF8FF
:105030002E0000200D900320119000208DF84D00CF
:10504000A06D0E90206D0F90002010904FF29000F8
:10505000129001208DF84C0001208DF82D0005A83C
:10506000FBF7A6FF01200590002006901E20099066
:10507000002007900020089000200A9000208DF862
:105080002C00E16C2800FDF7F5FEDFF82018FDF795
:10509000F9FDFEF795F9ADF83000D4F8C800DFF857
:1050A0001018FDF7EFFDFEF707FA00F29E60ADF86D
:1050B0002E00BDF830008001BDF82E10884204DAC1
:1050C000BDF82E00401EADF82E0001200D900320EB
:1050D000119001208DF84D00D4F8C4000E90D4F842
:1050E000BC000F90D4F8C000109046F240301290EF
:1050F00001208DF84C0001208DF82D0005A8FBF74C
:1051000057FF00203090002031900720329000207F
:105110001490D4F8240115901F20169000208DF8CB
:105120005C000B201890052019900B201A90052088
:105130001B90202214A940AD2800FEF7B7F80120EB
:105140002C9001202D904FF400702E904FF4907011
:105150002F900220339001208DF8D00001208DF88F
:10516000D100002033904FF400603F902CA8FBF753
:10517000E0FD14201D9024201C90606C1E900821DE
:1051800024A8FBF7F1FB03202190012022900020AE
:10519000209001201F9001208DF88C0000208DF8B8
:1051A0008D0001208DF88E001CA8FBF79CFF0121CB
:1051B0000120FCF734F80121DFF8F806FBF72CFD9D
:1051C000012204210120FCF748FB01218020FBF78C
:1051D00023FD1920FEF70EF90A20FEF70BF94FF414
:1051E0007A750095684600F009FCDFF8CC763A0045
:1051F000616CFBF7C0FBD4F82811FDF743FD0A20D2
:10520000FEF7F8F80095684600F0F8FB0600032169
:105210002220FCF704F83A00616C3000FBF7ABFB8E
:10522000D4F8CC10FDF72EFD0095200000F004FA14
:10523000002049B0F0BDF8B5C8B00400002010212E
:10524000002000F051FB1021012000F04DFB012156
:10525000002000F0B1FB0121012000F0ADFB200097
:1052600000F062F90021DFF83C06FBF7D5FC0120D5
:105270008DF8040001208DF8060001208DF805004E
:1052800000208DF8100000208DF80F0000208DF810
:105290000D0000208DF80E0001208DF8080001207F
:1052A0008DF8070001208DF8090001208DF80A0013
:1052B00001208DF80B0001A8FBF7E3FC002005900E
:1052C000002006901E2009900020079000200890E2
:1052D00000200A9000208DF82C00DFF8CC55E16CFE
:1052E0002800FDF7C7FDDFF8C415FDF7CBFCFEF77E
:1052F00067F8ADF83000E06DDFF8B415FDF7C2FCDB
:10530000FEF7DAF800F29E60ADF82E00BDF830002E
:105310008001BDF82E10884204DABDF82E00401E30
:10532000ADF82E0000200D900320119000208DF884
:105330004D00A06D0E90206D0F90002010904CF24B
:105340009000129001208DF84C0001208DF82D0066
:1053500005A8FBF72DFE01200590002006901E20D9
:105360000990002007900020089000200A9000205B
:105370008DF82C00E16C2800FDF77CFDDFF82C1582
:10538000FDF780FCFEF71CF8ADF83000D4F8C8003B
:10539000DFF81C15FDF776FCFEF78EF800F29E6034
:1053A000ADF82E00BDF830008001BDF82E10884207
:1053B00004DABDF82E00401EADF82E0001200D903D
:1053C0000320119001208DF84D00D4F8C4000E90F8
:1053D000D4F8BC000F90D4F8C000109044F24030D4
:1053E000129001208DF84C0001208DF82D0005A8A9
:1053F000FBF7DEFD00203090002031900720329036
:1054000000201490D4F8240115901F20169000203D
:105410008DF85C000B201890052019900B201A9035
:1054200005201B90202214A940AD2800FDF73EFF67
:1054300001202C9001202D904FF400702E904FF4FD
:1054400090702F900220339001208DF8D000012021
:105450008DF8D100002033904FF400603F902CA8CD
:10546000FBF767FC14201D9024201C90606C1E909C
:10547000082124A8FBF778FA03202190012022902C
:105480000020209001201F9001208DF88C0000202A
:105490008DF88D0001208DF88E001CA8FBF723FEEF
:1054A00001210120FBF7BBFE0121DFF80804FBF717
:1054B000B3FB012204210120FCF7CFF90121802058
:1054C000FBF7AAFB1920FDF795FF0A20FDF792FFD5
:1054D0004FF47A750095684600F090FADFF8D873BB
:1054E0003A00616CFBF747FAD4F82811FDF7CAFBC4
:1054F0000A20FDF77FFF0095684600F07FFA06005E
:1055000003212220FBF78BFE3A00616C3000FBF791
:1055100032FAD4F8CC10FDF7B5FB0095200000F06E
:105520008BF8002049B0F0BDF8B592B0040000201F
:105530000490D4F8240105901F20069000208DF8D7
:105540001C000B200890052009900B200A900520D4
:105550000B90DA48DA4D4560616C81610B21416145
:10556000012101610021C1614FF47A710162D549C5
:10557000C160D1498160FCF713FAD3480021016171
:10558000002141610021C1600B21C16101218161C4
:10559000FDF7B0F8CD4FCE4E3E60E06A7860BD605A
:1055A000FD6017F1100004A92022FDF78FFE0120F5
:1055B0003863002078630920B8630020F863012075
:1055C00087F8400001207864002002A93800FCF729
:1055D0004BFBDDE9020114F59472C2E900013821A8
:1055E00004A8FBF7C1F9012008900120119007954C
:1055F000069501200C9000200D9009200E900020AF
:105600000F9001208DF840000496B2480590D4F820
:10561000C0000A9003200B9000208DF824006946FA
:1056200004A8FCF725FDDDE9000114F1CC02C2E974
:105630000001002013B0F0BD2DE9FC4704004FF439
:105640007A7000900020002008211A20FBF7E7FD67
:105650004CF250352800FDF7CDFE684600F0CEF93B
:105660001420FDF7C7FE684600F0C8F91420FDF7C6
:10567000C1FE684600F0C2F907001420FDF7BAFE2B
:105680008D4E3200616C3800FBF775F90100924FC6
:105690003800FDF783FBE16DFDF7ECFB81464846E2
:1056A0008349FDF7EFFAFDF707FFDFF8FC81E16CB6
:1056B0004046FDF7DFFB7D49FDF7E4FAFDF780FE8C
:1056C0008246E06D7A49FDF7DDFAFDF7F5FE00F25E
:1056D0009E60FDF7C5FA01004846FDF7CBFBFDF7DC
:1056E000EBFE5146C9B280B2FBF7A9FC2800FDF7DA
:1056F00081FE684600F082F91420FDF77BFE6846C3
:1057000000F07CF91420FDF775FE684600F076F98C
:1057100081461420FDF76EFE3200616C4846FBF7AF
:105720002AF908210F20FBF77AFD2800FDF762FE19
:10573000684600F063F91420FDF75CFE684600F04F
:105740005DF91420FDF756FE684600F057F98146D2
:105750001420FDF74FFE3200616C4846FBF70BF951
:105760003900FDF71BFBD4F8C810FDF783FB0700D9
:1057700038004F49FDF786FAFDF79EFEE16C404682
:10578000FDF778FB4949FDF77DFAFDF719FE8046E4
:10579000D4F8C8004649FDF775FAFDF78DFE00F212
:1057A0009E60FDF75DFA01003800FDF763FBFDF731
:1057B00083FE4146C9B280B2FBF750FC2800FDF7DA
:1057C00019FE684600F01AF91420FDF713FE68462A
:1057D00000F014F91420FDF70DFE684600F00EF9F4
:1057E00005001420FDF706FE3200616C2800FBF76F
:1057F000C2F80020BDE8F68710B586B0040000208E
:105800002000FFF79DFB0028FAD103200390012020
:105810000490002002900220019001208DF81400D5
:1058200000208DF8150001208DF816000021802041
:10583000FBF7F2F9002204210120FCF70EF801A881
:10584000FBF7AEFC01211B48FBF7E6F9012204211E
:105850000120FCF702F801218020FBF7DDF9072188
:105860000620FBF7DCFC42F21070FDF7C3FD4FF49D
:105870007A700090684600F0C1F80F4A616CFBF73F
:105880007AF8FDF7B3FB02000B00144800F034FA7D
:10589000134800F031FA134800F02EFA002006B049
:1058A00010BD0000E0FF3900000048C3998809429C
:1058B0009988093F400E1100C3F5E83F34090020E4
:1058C0000024744B7B148E3F58090020AC08002044
:1058D000000084430000484300007AC47C89000033
:1058E000488C00008C86000010B50C0014F00F04EA
:1058F000C0B200282FD0E00704D520213D48FEF794
:105900004CF903E020213B48FEF74AF96408E00720
:1059100004D504213848FEF740F903E00421364855
:10592000FEF73EF96408E00704D508213248FEF787
:1059300034F903E008213048FEF732F96408E00743
:1059400004D510212C48FEF728F933E010212A480D
:10595000FEF726F92EE0E00704D510212548FEF7D2
:105960001CF903E010212348FEF71AF96408E00748
:1059700004D508211F48FEF710F903E008211D484F
:10598000FEF70EF96408E00704D504211948FEF774
:1059900004F903E004211748FEF702F96408E00760
:1059A00004D502211348FEF7F8F803E0022111485C
:1059B000FEF7F6F8002010BD80B5C0B200280CD06C
:1059C000C9B2002904D020210B48FEF7E9F810E005
:1059D00020210948FEF7E1F80BE0C9B2002904D004
:1059E00001210448FEF7DCF803E001210148FEF73D
:1059F000D4F802BD000002404000024070B504002F
:105A000000250420FBF750FFA54E01213000FBF7D5
:105A100003F90120FDF7EEFC04210120FBF74BFF09
:105A200000280AD1206810F1010F02D02068401E22
:105A3000206020680028ECD103E00120FBF769FB1F
:105A4000050000213000FBF7E7F8280070BD80B5A5
:105A5000002809D0022812D00AD304281DD012D35E
:105A6000062825D01DD32AE08E4800F045F92AE00B
:105A70008D4800F041F98D4800F03EF923E08C4854
:105A800000F03AF91FE084A000F036F9894800F0F0
:105A900033F9864800F030F915E0874800F02CF91A
:105AA00011E0864800F028F97CA000F025F90AE012
:105AB000834800F021F9834800F01EF903E001005B
:105AC000814800F019F9002002BD80B5002809D0F6
:105AD000022812D00AD304281DD015D3062828D0B6
:105AE00020D32DE06F4800F007F92DE0774800F053
:105AF00003F969A000F000F926E0754800F0FCF811
:105B000065A000F0F9F81FE0724800F0F5F862A017
:105B100000F0F2F818E0704800F0EEF85EA000F037
:105B2000EBF811E06D4800F0E7F85BA000F0E4F856
:105B30000AE06B4800F0E0F857A000F0DDF803E061
:105B40000100614800F0D8F8002002BD80B5684629
:105B500000F06BF90098D0F86C310098D0F868210B
:105B60000098D0F864110098D0F8600100F0A6FB0E
:105B7000002002BD80B5684600F057F90098D0F8C3
:105B80006001FDF733FA02000B00564800F0B4F84C
:105B9000002002BD00B591B010A800F046F91098A1
:105BA000D0F88001FDF722FACDE90E011098D0F867
:105BB0007C01FDF71BFACDE90C011098D0F87801B3
:105BC000FDF714FACDE90A011098D0F87401FDF739
:105BD0000DFACDE908011098D0F87001FDF706FA2A
:105BE000CDE906011098D0F86C01FDF7FFF9CDE979
:105BF00004011098D0F86801FDF7F8F9CDE9020129
:105C00001098D0F86401FDF7F1F9CDE90001109882
:105C1000D0F86001FDF7EAF902000B00324800F00D
:105C20006BF8002011B000BD80B5684600F0FDF8AB
:105C30000098D0F86001FDF7D9F902000B00224866
:105C400000F05AF8002002BD1FB502A800F0EDF8E0
:105C5000264800F051F8002415E0029800EB84007B
:105C6000D0F84003FDF7C2F9CDE90001029800EB3E
:105C70008400D0F8B001FDF7B9F902000B001C4810
:105C800000F03AF8641C642CE7D31A4800F034F8AA
:105C9000002004B010BD00000D0A0000490D0A00EC
:105CA00000010100B08C0000E88A0000588C000060
:105CB000008B0000AC880000D0890000EC8B000055
:105CC000008C000014870000188D0000EC89000093
:105CD000088A0000A8870000CC880000148C00000F
:105CE000188B0000208D0000BC860000308B000067
:105CF000BC8C0000288D00000EB4C0B5024603A87D
:105D000000210190009101AB0121044878440C303E
:105D1000FEF7DFF806BC5DF810FB00BF2D2E00007B
:105D200018B5C7B0FAF736FF01210120FAF7A0FF36
:105D3000012007900020059001200690002004908B
:105D400000208DF8210001208DF8200000208DF822
:105D5000230001208DF8220004A8FBF7BAFC0120E3
:105D60008DF8000001208DF8020001208DF801005F
:105D700000208DF80C0000208DF80B0000208DF81D
:105D8000090000208DF80A0000208DF80400002092
:105D90008DF8030001208DF8050001208DF8060024
:105DA00000208DF807006846FAF76BFF01225FF0CC
:105DB000FF310120FBF751FD5FF0FF30FBF774FD71
:105DC00001225FF0FF310020FBF747FD5FF0FF305D
:105DD000FBF76AFD40210CA8FAF7C6FD3C2138A864
:105DE000FAF7C2FD70211CA8FAF7BEFD0CA8FBF75C
:105DF0007AF938A8FBF7DCF81C480A9000200990D3
:105E00001B480B901B4C210009A8FCF7BBFD206828
:105E1000FDF7ECF802000B001748FFF76DFF17487D
:105E2000FBF75BFD002048B010BD002803D01149EE
:105E30000160002001E07FF00100704780B56846F6
:105E4000FFF7F3FF0E48FFF757FFFFF769FF0098D2
:105E500000F0AAFA0028FAD10A4B5FF07E525FF0F8
:105E60008041002000F02AFA01BD000000007A44C1
:105E70000024744B4C010020388C0000E5470A00D8
:105E8000288900000000E04010B50024DFF8A004DD
:105E9000FFF732FF15E00C21DFF8983401FB04F026
:105EA000185800280CD001FB04F01844826801FB4C
:105EB00004F103EB01004168DFF87C04FFF71CFFED
:105EC000641C082CE7DBDFF87404FFF715FFDFF82C
:105ED000700410BD2DE9F8438AB005000C001600CF
:105EE0001F00DDF84880DDF84C901498FDF77EF82F
:105EF000CDE908014846FDF779F8CDE906014046AD
:105F0000FDF774F8CDE904013800FDF76FF8CDE92D
:105F100002013000FDF76AF8CDE900012000FDF72D
:105F200065F802000B002900DFF81804FFF7E4FE13
:105F3000DFF81404FFF7E0FEDFF810040BB0BDE853
:105F4000F08330B40021DFF8080400220260002250
:105F500002E000245C54491CDFF8F84323689942AE
:105F600004D2DFF8F4335D5C202DF2D0236899422F
:105F700011D113E0D2B2002A02D10268521C026091
:105F8000012207E0DFF8D0335D5C202DF2D1002242
:105F90005A540022491C23689942F3D330BC7047FD
:105FA0002DE9F0410021DFF8B4530020286000E023
:105FB000491CDFF8A0030068814206D2DFF898236D
:105FC000505C0028F4D002EB0104002600E0761CAF
:105FD000082E0FDA0C27DFF85C83210007FB06F0A0
:105FE0004044406800F0E2FA0028F0D17E4358F8BF
:105FF00006002860BDE8F0811CB50C000A22694645
:1060000000F080FB2060002016BD1CB50C00694626
:1060100000F0FCFCFDF788F82060002016BD2DE99B
:10602000F84FDFF834B3DFF8381300200860DFF8EA
:10603000344300202060DFF8305300202860DFF870
:106040002C6300203060DFF8287300203860DFF810
:1060500024830020C8F80000DFF81C930020C9F852
:10606000000001E01BF1010B9BF800000028F9D0B3
:106070009BF80000002804D01BF1010BF8E71BF18E
:10608000010B9BF800000028F9D05846FFF7B4FF39
:10609000002840F08680DFF8B8A2DAF80000022875
:1060A00002D17EE01BF1010B9BF800000028F9D122
:1060B0009BF80000002802D11BF1010BF8E721003A
:1060C0005846FFF7A2FFDAF80000032802D168E083
:1060D0001BF1010B9BF800000028F9D19BF8000090
:1060E000002802D11BF1010BF8E729005846FFF701
:1060F0008CFFDAF80000042802D152E01BF1010BFA
:106100009BF800000028F9D19BF80000002802D17C
:106110001BF1010BF8E731005846FFF776FFDAF87C
:106120000000052802D13CE01BF1010B9BF80000A8
:106130000028F9D19BF80000002802D11BF1010BC7
:10614000F8E739005846FFF760FFDAF80000062844
:1061500002D126E01BF1010B9BF800000028F9D1C9
:106160009BF80000002802D11BF1010BF8E7414623
:106170005846FFF74AFFDAF80000072802D110E07E
